{
	"contracts/whiteList.sol": {
		"WhiteList": {
			"abi": [
				{
					"inputs": [
						{
							"internalType": "uint8",
							"name": "_maxWhiteListedAddresses",
							"type": "uint8"
						}
					],
					"stateMutability": "nonpayable",
					"type": "constructor"
				},
				{
					"inputs": [],
					"name": "addAddressToWhiteList",
					"outputs": [],
					"stateMutability": "nonpayable",
					"type": "function"
				},
				{
					"inputs": [],
					"name": "maxWhiteListedAddresses",
					"outputs": [
						{
							"internalType": "uint8",
							"name": "",
							"type": "uint8"
						}
					],
					"stateMutability": "view",
					"type": "function"
				},
				{
					"inputs": [],
					"name": "numOfWhiteListedAddresses",
					"outputs": [
						{
							"internalType": "uint8",
							"name": "",
							"type": "uint8"
						}
					],
					"stateMutability": "view",
					"type": "function"
				},
				{
					"inputs": [
						{
							"internalType": "address",
							"name": "",
							"type": "address"
						}
					],
					"name": "whiteListedAddresses",
					"outputs": [
						{
							"internalType": "bool",
							"name": "",
							"type": "bool"
						}
					],
					"stateMutability": "view",
					"type": "function"
				}
			],
			"devdoc": {
				"kind": "dev",
				"methods": {},
				"version": 1
			},
			"evm": {
				"assembly": "    /* \"contracts/whiteList.sol\":61:679  contract WhiteList{... */\n  mstore(0x40, 0x80)\n    /* \"contracts/whiteList.sol\":233:346  constructor(uint8 _maxWhiteListedAddresses) {... */\n  callvalue\n  dup1\n  iszero\n  tag_1\n  jumpi\n  0x00\n  dup1\n  revert\ntag_1:\n  pop\n  mload(0x40)\n  sub(codesize, bytecodeSize)\n  dup1\n  bytecodeSize\n  dup4\n  codecopy\n  dup2\n  dup2\n  add\n  0x40\n  mstore\n  dup2\n  add\n  swap1\n  tag_2\n  swap2\n  swap1\n  tag_3\n  jump\t// in\ntag_2:\n    /* \"contracts/whiteList.sol\":314:338  _maxWhiteListedAddresses */\n  dup1\n    /* \"contracts/whiteList.sol\":288:311  maxWhiteListedAddresses */\n  0x00\n  dup1\n    /* \"contracts/whiteList.sol\":288:338  maxWhiteListedAddresses = _maxWhiteListedAddresses */\n  0x0100\n  exp\n  dup2\n  sload\n  dup2\n  0xff\n  mul\n  not\n  and\n  swap1\n  dup4\n  0xff\n  and\n  mul\n  or\n  swap1\n  sstore\n  pop\n    /* \"contracts/whiteList.sol\":233:346  constructor(uint8 _maxWhiteListedAddresses) {... */\n  pop\n    /* \"contracts/whiteList.sol\":61:679  contract WhiteList{... */\n  jump(tag_6)\n    /* \"#utility.yul\":88:205   */\ntag_8:\n    /* \"#utility.yul\":197:198   */\n  0x00\n    /* \"#utility.yul\":194:195   */\n  dup1\n    /* \"#utility.yul\":187:199   */\n  revert\n    /* \"#utility.yul\":334:420   */\ntag_10:\n    /* \"#utility.yul\":369:376   */\n  0x00\n    /* \"#utility.yul\":409:413   */\n  0xff\n    /* \"#utility.yul\":402:407   */\n  dup3\n    /* \"#utility.yul\":398:414   */\n  and\n    /* \"#utility.yul\":387:414   */\n  swap1\n  pop\n    /* \"#utility.yul\":334:420   */\n  swap2\n  swap1\n  pop\n  jump\t// out\n    /* \"#utility.yul\":426:544   */\ntag_11:\n    /* \"#utility.yul\":497:519   */\n  tag_19\n    /* \"#utility.yul\":513:518   */\n  dup2\n    /* \"#utility.yul\":497:519   */\n  tag_10\n  jump\t// in\ntag_19:\n    /* \"#utility.yul\":490:495   */\n  dup2\n    /* \"#utility.yul\":487:520   */\n  eq\n    /* \"#utility.yul\":477:538   */\n  tag_20\n  jumpi\n    /* \"#utility.yul\":534:535   */\n  0x00\n    /* \"#utility.yul\":531:532   */\n  dup1\n    /* \"#utility.yul\":524:536   */\n  revert\n    /* \"#utility.yul\":477:538   */\ntag_20:\n    /* \"#utility.yul\":426:544   */\n  pop\n  jump\t// out\n    /* \"#utility.yul\":550:689   */\ntag_12:\n    /* \"#utility.yul\":605:610   */\n  0x00\n    /* \"#utility.yul\":636:642   */\n  dup2\n    /* \"#utility.yul\":630:643   */\n  mload\n    /* \"#utility.yul\":621:643   */\n  swap1\n  pop\n    /* \"#utility.yul\":652:683   */\n  tag_22\n    /* \"#utility.yul\":677:682   */\n  dup2\n    /* \"#utility.yul\":652:683   */\n  tag_11\n  jump\t// in\ntag_22:\n    /* \"#utility.yul\":550:689   */\n  swap3\n  swap2\n  pop\n  pop\n  jump\t// out\n    /* \"#utility.yul\":695:1042   */\ntag_3:\n    /* \"#utility.yul\":763:769   */\n  0x00\n    /* \"#utility.yul\":812:814   */\n  0x20\n    /* \"#utility.yul\":800:809   */\n  dup3\n    /* \"#utility.yul\":791:798   */\n  dup5\n    /* \"#utility.yul\":787:810   */\n  sub\n    /* \"#utility.yul\":783:815   */\n  slt\n    /* \"#utility.yul\":780:899   */\n  iszero\n  tag_24\n  jumpi\n    /* \"#utility.yul\":818:897   */\n  tag_25\n  tag_8\n  jump\t// in\ntag_25:\n    /* \"#utility.yul\":780:899   */\ntag_24:\n    /* \"#utility.yul\":938:939   */\n  0x00\n    /* \"#utility.yul\":963:1025   */\n  tag_26\n    /* \"#utility.yul\":1017:1024   */\n  dup5\n    /* \"#utility.yul\":1008:1014   */\n  dup3\n    /* \"#utility.yul\":997:1006   */\n  dup6\n    /* \"#utility.yul\":993:1015   */\n  add\n    /* \"#utility.yul\":963:1025   */\n  tag_12\n  jump\t// in\ntag_26:\n    /* \"#utility.yul\":953:1025   */\n  swap2\n  pop\n    /* \"#utility.yul\":909:1035   */\n  pop\n    /* \"#utility.yul\":695:1042   */\n  swap3\n  swap2\n  pop\n  pop\n  jump\t// out\n    /* \"contracts/whiteList.sol\":61:679  contract WhiteList{... */\ntag_6:\n  dataSize(sub_0)\n  dup1\n  dataOffset(sub_0)\n  0x00\n  codecopy\n  0x00\n  return\nstop\n\nsub_0: assembly {\n        /* \"contracts/whiteList.sol\":61:679  contract WhiteList{... */\n      mstore(0x40, 0x80)\n      callvalue\n      dup1\n      iszero\n      tag_1\n      jumpi\n      0x00\n      dup1\n      revert\n    tag_1:\n      pop\n      jumpi(tag_2, lt(calldatasize, 0x04))\n      shr(0xe0, calldataload(0x00))\n      dup1\n      0x03108fe4\n      eq\n      tag_3\n      jumpi\n      dup1\n      0x13f27744\n      eq\n      tag_4\n      jumpi\n      dup1\n      0x5c36b450\n      eq\n      tag_5\n      jumpi\n      dup1\n      0xd8e773a2\n      eq\n      tag_6\n      jumpi\n    tag_2:\n      0x00\n      dup1\n      revert\n        /* \"contracts/whiteList.sol\":86:122  uint8 public maxWhiteListedAddresses */\n    tag_3:\n      tag_7\n      tag_8\n      jump\t// in\n    tag_7:\n      mload(0x40)\n      tag_9\n      swap2\n      swap1\n      tag_10\n      jump\t// in\n    tag_9:\n      mload(0x40)\n      dup1\n      swap2\n      sub\n      swap1\n      return\n        /* \"contracts/whiteList.sol\":358:674  function addAddressToWhiteList() public {... */\n    tag_4:\n      tag_11\n      tag_12\n      jump\t// in\n    tag_11:\n      stop\n        /* \"contracts/whiteList.sol\":186:224  uint8 public numOfWhiteListedAddresses */\n    tag_5:\n      tag_13\n      tag_14\n      jump\t// in\n    tag_13:\n      mload(0x40)\n      tag_15\n      swap2\n      swap1\n      tag_10\n      jump\t// in\n    tag_15:\n      mload(0x40)\n      dup1\n      swap2\n      sub\n      swap1\n      return\n        /* \"contracts/whiteList.sol\":129:179  mapping(address=>bool) public whiteListedAddresses */\n    tag_6:\n      tag_16\n      0x04\n      dup1\n      calldatasize\n      sub\n      dup2\n      add\n      swap1\n      tag_17\n      swap2\n      swap1\n      tag_18\n      jump\t// in\n    tag_17:\n      tag_19\n      jump\t// in\n    tag_16:\n      mload(0x40)\n      tag_20\n      swap2\n      swap1\n      tag_21\n      jump\t// in\n    tag_20:\n      mload(0x40)\n      dup1\n      swap2\n      sub\n      swap1\n      return\n        /* \"contracts/whiteList.sol\":86:122  uint8 public maxWhiteListedAddresses */\n    tag_8:\n      0x00\n      dup1\n      sload\n      swap1\n      0x0100\n      exp\n      swap1\n      div\n      0xff\n      and\n      dup2\n      jump\t// out\n        /* \"contracts/whiteList.sol\":358:674  function addAddressToWhiteList() public {... */\n    tag_12:\n        /* \"contracts/whiteList.sol\":418:438  whiteListedAddresses */\n      0x01\n        /* \"contracts/whiteList.sol\":418:450  whiteListedAddresses[msg.sender] */\n      0x00\n        /* \"contracts/whiteList.sol\":439:449  msg.sender */\n      caller\n        /* \"contracts/whiteList.sol\":418:450  whiteListedAddresses[msg.sender] */\n      0xffffffffffffffffffffffffffffffffffffffff\n      and\n      0xffffffffffffffffffffffffffffffffffffffff\n      and\n      dup2\n      mstore\n      0x20\n      add\n      swap1\n      dup2\n      mstore\n      0x20\n      add\n      0x00\n      keccak256\n      0x00\n      swap1\n      sload\n      swap1\n      0x0100\n      exp\n      swap1\n      div\n      0xff\n      and\n        /* \"contracts/whiteList.sol\":417:450  !whiteListedAddresses[msg.sender] */\n      iszero\n        /* \"contracts/whiteList.sol\":409:482  require(!whiteListedAddresses[msg.sender], \"Address Already WhiteListed\") */\n      tag_23\n      jumpi\n      mload(0x40)\n      0x08c379a000000000000000000000000000000000000000000000000000000000\n      dup2\n      mstore\n      0x04\n      add\n      tag_24\n      swap1\n      tag_25\n      jump\t// in\n    tag_24:\n      mload(0x40)\n      dup1\n      swap2\n      sub\n      swap1\n      revert\n    tag_23:\n        /* \"contracts/whiteList.sol\":527:550  maxWhiteListedAddresses */\n      0x00\n      dup1\n      sload\n      swap1\n      0x0100\n      exp\n      swap1\n      div\n      0xff\n      and\n        /* \"contracts/whiteList.sol\":501:550  numOfWhiteListedAddresses<maxWhiteListedAddresses */\n      0xff\n      and\n        /* \"contracts/whiteList.sol\":501:526  numOfWhiteListedAddresses */\n      0x02\n      0x00\n      swap1\n      sload\n      swap1\n      0x0100\n      exp\n      swap1\n      div\n      0xff\n      and\n        /* \"contracts/whiteList.sol\":501:550  numOfWhiteListedAddresses<maxWhiteListedAddresses */\n      0xff\n      and\n      lt\n        /* \"contracts/whiteList.sol\":493:575  require(numOfWhiteListedAddresses<maxWhiteListedAddresses,\"Maximum limit reached\") */\n      tag_26\n      jumpi\n      mload(0x40)\n      0x08c379a000000000000000000000000000000000000000000000000000000000\n      dup2\n      mstore\n      0x04\n      add\n      tag_27\n      swap1\n      tag_28\n      jump\t// in\n    tag_27:\n      mload(0x40)\n      dup1\n      swap2\n      sub\n      swap1\n      revert\n    tag_26:\n        /* \"contracts/whiteList.sol\":621:625  true */\n      0x01\n        /* \"contracts/whiteList.sol\":586:606  whiteListedAddresses */\n      dup1\n        /* \"contracts/whiteList.sol\":586:618  whiteListedAddresses[msg.sender] */\n      0x00\n        /* \"contracts/whiteList.sol\":607:617  msg.sender */\n      caller\n        /* \"contracts/whiteList.sol\":586:618  whiteListedAddresses[msg.sender] */\n      0xffffffffffffffffffffffffffffffffffffffff\n      and\n      0xffffffffffffffffffffffffffffffffffffffff\n      and\n      dup2\n      mstore\n      0x20\n      add\n      swap1\n      dup2\n      mstore\n      0x20\n      add\n      0x00\n      keccak256\n      0x00\n        /* \"contracts/whiteList.sol\":586:625  whiteListedAddresses[msg.sender] = true */\n      0x0100\n      exp\n      dup2\n      sload\n      dup2\n      0xff\n      mul\n      not\n      and\n      swap1\n      dup4\n      iszero\n      iszero\n      mul\n      or\n      swap1\n      sstore\n      pop\n        /* \"contracts/whiteList.sol\":665:666  1 */\n      0x01\n        /* \"contracts/whiteList.sol\":636:661  numOfWhiteListedAddresses */\n      0x02\n      0x00\n        /* \"contracts/whiteList.sol\":636:666  numOfWhiteListedAddresses += 1 */\n      dup3\n      dup3\n      dup3\n      swap1\n      sload\n      swap1\n      0x0100\n      exp\n      swap1\n      div\n      0xff\n      and\n      tag_29\n      swap2\n      swap1\n      tag_30\n      jump\t// in\n    tag_29:\n      swap3\n      pop\n      0x0100\n      exp\n      dup2\n      sload\n      dup2\n      0xff\n      mul\n      not\n      and\n      swap1\n      dup4\n      0xff\n      and\n      mul\n      or\n      swap1\n      sstore\n      pop\n        /* \"contracts/whiteList.sol\":358:674  function addAddressToWhiteList() public {... */\n      jump\t// out\n        /* \"contracts/whiteList.sol\":186:224  uint8 public numOfWhiteListedAddresses */\n    tag_14:\n      0x02\n      0x00\n      swap1\n      sload\n      swap1\n      0x0100\n      exp\n      swap1\n      div\n      0xff\n      and\n      dup2\n      jump\t// out\n        /* \"contracts/whiteList.sol\":129:179  mapping(address=>bool) public whiteListedAddresses */\n    tag_19:\n      mstore(0x20, 0x01)\n      dup1\n      0x00\n      mstore\n      keccak256(0x00, 0x40)\n      0x00\n      swap2\n      pop\n      sload\n      swap1\n      0x0100\n      exp\n      swap1\n      div\n      0xff\n      and\n      dup2\n      jump\t// out\n        /* \"#utility.yul\":7:93   */\n    tag_31:\n        /* \"#utility.yul\":42:49   */\n      0x00\n        /* \"#utility.yul\":82:86   */\n      0xff\n        /* \"#utility.yul\":75:80   */\n      dup3\n        /* \"#utility.yul\":71:87   */\n      and\n        /* \"#utility.yul\":60:87   */\n      swap1\n      pop\n        /* \"#utility.yul\":7:93   */\n      swap2\n      swap1\n      pop\n      jump\t// out\n        /* \"#utility.yul\":99:211   */\n    tag_32:\n        /* \"#utility.yul\":182:204   */\n      tag_51\n        /* \"#utility.yul\":198:203   */\n      dup2\n        /* \"#utility.yul\":182:204   */\n      tag_31\n      jump\t// in\n    tag_51:\n        /* \"#utility.yul\":177:180   */\n      dup3\n        /* \"#utility.yul\":170:205   */\n      mstore\n        /* \"#utility.yul\":99:211   */\n      pop\n      pop\n      jump\t// out\n        /* \"#utility.yul\":217:431   */\n    tag_10:\n        /* \"#utility.yul\":306:310   */\n      0x00\n        /* \"#utility.yul\":344:346   */\n      0x20\n        /* \"#utility.yul\":333:342   */\n      dup3\n        /* \"#utility.yul\":329:347   */\n      add\n        /* \"#utility.yul\":321:347   */\n      swap1\n      pop\n        /* \"#utility.yul\":357:424   */\n      tag_53\n        /* \"#utility.yul\":421:422   */\n      0x00\n        /* \"#utility.yul\":410:419   */\n      dup4\n        /* \"#utility.yul\":406:423   */\n      add\n        /* \"#utility.yul\":397:403   */\n      dup5\n        /* \"#utility.yul\":357:424   */\n      tag_32\n      jump\t// in\n    tag_53:\n        /* \"#utility.yul\":217:431   */\n      swap3\n      swap2\n      pop\n      pop\n      jump\t// out\n        /* \"#utility.yul\":518:635   */\n    tag_34:\n        /* \"#utility.yul\":627:628   */\n      0x00\n        /* \"#utility.yul\":624:625   */\n      dup1\n        /* \"#utility.yul\":617:629   */\n      revert\n        /* \"#utility.yul\":764:890   */\n    tag_36:\n        /* \"#utility.yul\":801:808   */\n      0x00\n        /* \"#utility.yul\":841:883   */\n      0xffffffffffffffffffffffffffffffffffffffff\n        /* \"#utility.yul\":834:839   */\n      dup3\n        /* \"#utility.yul\":830:884   */\n      and\n        /* \"#utility.yul\":819:884   */\n      swap1\n      pop\n        /* \"#utility.yul\":764:890   */\n      swap2\n      swap1\n      pop\n      jump\t// out\n        /* \"#utility.yul\":896:992   */\n    tag_37:\n        /* \"#utility.yul\":933:940   */\n      0x00\n        /* \"#utility.yul\":962:986   */\n      tag_59\n        /* \"#utility.yul\":980:985   */\n      dup3\n        /* \"#utility.yul\":962:986   */\n      tag_36\n      jump\t// in\n    tag_59:\n        /* \"#utility.yul\":951:986   */\n      swap1\n      pop\n        /* \"#utility.yul\":896:992   */\n      swap2\n      swap1\n      pop\n      jump\t// out\n        /* \"#utility.yul\":998:1120   */\n    tag_38:\n        /* \"#utility.yul\":1071:1095   */\n      tag_61\n        /* \"#utility.yul\":1089:1094   */\n      dup2\n        /* \"#utility.yul\":1071:1095   */\n      tag_37\n      jump\t// in\n    tag_61:\n        /* \"#utility.yul\":1064:1069   */\n      dup2\n        /* \"#utility.yul\":1061:1096   */\n      eq\n        /* \"#utility.yul\":1051:1114   */\n      tag_62\n      jumpi\n        /* \"#utility.yul\":1110:1111   */\n      0x00\n        /* \"#utility.yul\":1107:1108   */\n      dup1\n        /* \"#utility.yul\":1100:1112   */\n      revert\n        /* \"#utility.yul\":1051:1114   */\n    tag_62:\n        /* \"#utility.yul\":998:1120   */\n      pop\n      jump\t// out\n        /* \"#utility.yul\":1126:1265   */\n    tag_39:\n        /* \"#utility.yul\":1172:1177   */\n      0x00\n        /* \"#utility.yul\":1210:1216   */\n      dup2\n        /* \"#utility.yul\":1197:1217   */\n      calldataload\n        /* \"#utility.yul\":1188:1217   */\n      swap1\n      pop\n        /* \"#utility.yul\":1226:1259   */\n      tag_64\n        /* \"#utility.yul\":1253:1258   */\n      dup2\n        /* \"#utility.yul\":1226:1259   */\n      tag_38\n      jump\t// in\n    tag_64:\n        /* \"#utility.yul\":1126:1265   */\n      swap3\n      swap2\n      pop\n      pop\n      jump\t// out\n        /* \"#utility.yul\":1271:1600   */\n    tag_18:\n        /* \"#utility.yul\":1330:1336   */\n      0x00\n        /* \"#utility.yul\":1379:1381   */\n      0x20\n        /* \"#utility.yul\":1367:1376   */\n      dup3\n        /* \"#utility.yul\":1358:1365   */\n      dup5\n        /* \"#utility.yul\":1354:1377   */\n      sub\n        /* \"#utility.yul\":1350:1382   */\n      slt\n        /* \"#utility.yul\":1347:1466   */\n      iszero\n      tag_66\n      jumpi\n        /* \"#utility.yul\":1385:1464   */\n      tag_67\n      tag_34\n      jump\t// in\n    tag_67:\n        /* \"#utility.yul\":1347:1466   */\n    tag_66:\n        /* \"#utility.yul\":1505:1506   */\n      0x00\n        /* \"#utility.yul\":1530:1583   */\n      tag_68\n        /* \"#utility.yul\":1575:1582   */\n      dup5\n        /* \"#utility.yul\":1566:1572   */\n      dup3\n        /* \"#utility.yul\":1555:1564   */\n      dup6\n        /* \"#utility.yul\":1551:1573   */\n      add\n        /* \"#utility.yul\":1530:1583   */\n      tag_39\n      jump\t// in\n    tag_68:\n        /* \"#utility.yul\":1520:1583   */\n      swap2\n      pop\n        /* \"#utility.yul\":1476:1593   */\n      pop\n        /* \"#utility.yul\":1271:1600   */\n      swap3\n      swap2\n      pop\n      pop\n      jump\t// out\n        /* \"#utility.yul\":1606:1696   */\n    tag_40:\n        /* \"#utility.yul\":1640:1647   */\n      0x00\n        /* \"#utility.yul\":1683:1688   */\n      dup2\n        /* \"#utility.yul\":1676:1689   */\n      iszero\n        /* \"#utility.yul\":1669:1690   */\n      iszero\n        /* \"#utility.yul\":1658:1690   */\n      swap1\n      pop\n        /* \"#utility.yul\":1606:1696   */\n      swap2\n      swap1\n      pop\n      jump\t// out\n        /* \"#utility.yul\":1702:1811   */\n    tag_41:\n        /* \"#utility.yul\":1783:1804   */\n      tag_71\n        /* \"#utility.yul\":1798:1803   */\n      dup2\n        /* \"#utility.yul\":1783:1804   */\n      tag_40\n      jump\t// in\n    tag_71:\n        /* \"#utility.yul\":1778:1781   */\n      dup3\n        /* \"#utility.yul\":1771:1805   */\n      mstore\n        /* \"#utility.yul\":1702:1811   */\n      pop\n      pop\n      jump\t// out\n        /* \"#utility.yul\":1817:2027   */\n    tag_21:\n        /* \"#utility.yul\":1904:1908   */\n      0x00\n        /* \"#utility.yul\":1942:1944   */\n      0x20\n        /* \"#utility.yul\":1931:1940   */\n      dup3\n        /* \"#utility.yul\":1927:1945   */\n      add\n        /* \"#utility.yul\":1919:1945   */\n      swap1\n      pop\n        /* \"#utility.yul\":1955:2020   */\n      tag_73\n        /* \"#utility.yul\":2017:2018   */\n      0x00\n        /* \"#utility.yul\":2006:2015   */\n      dup4\n        /* \"#utility.yul\":2002:2019   */\n      add\n        /* \"#utility.yul\":1993:1999   */\n      dup5\n        /* \"#utility.yul\":1955:2020   */\n      tag_41\n      jump\t// in\n    tag_73:\n        /* \"#utility.yul\":1817:2027   */\n      swap3\n      swap2\n      pop\n      pop\n      jump\t// out\n        /* \"#utility.yul\":2033:2202   */\n    tag_42:\n        /* \"#utility.yul\":2117:2128   */\n      0x00\n        /* \"#utility.yul\":2151:2157   */\n      dup3\n        /* \"#utility.yul\":2146:2149   */\n      dup3\n        /* \"#utility.yul\":2139:2158   */\n      mstore\n        /* \"#utility.yul\":2191:2195   */\n      0x20\n        /* \"#utility.yul\":2186:2189   */\n      dup3\n        /* \"#utility.yul\":2182:2196   */\n      add\n        /* \"#utility.yul\":2167:2196   */\n      swap1\n      pop\n        /* \"#utility.yul\":2033:2202   */\n      swap3\n      swap2\n      pop\n      pop\n      jump\t// out\n        /* \"#utility.yul\":2208:2385   */\n    tag_43:\n        /* \"#utility.yul\":2348:2377   */\n      0x4164647265737320416c72656164792057686974654c69737465640000000000\n        /* \"#utility.yul\":2344:2345   */\n      0x00\n        /* \"#utility.yul\":2336:2342   */\n      dup3\n        /* \"#utility.yul\":2332:2346   */\n      add\n        /* \"#utility.yul\":2325:2378   */\n      mstore\n        /* \"#utility.yul\":2208:2385   */\n      pop\n      jump\t// out\n        /* \"#utility.yul\":2391:2757   */\n    tag_44:\n        /* \"#utility.yul\":2533:2536   */\n      0x00\n        /* \"#utility.yul\":2554:2621   */\n      tag_77\n        /* \"#utility.yul\":2618:2620   */\n      0x1b\n        /* \"#utility.yul\":2613:2616   */\n      dup4\n        /* \"#utility.yul\":2554:2621   */\n      tag_42\n      jump\t// in\n    tag_77:\n        /* \"#utility.yul\":2547:2621   */\n      swap2\n      pop\n        /* \"#utility.yul\":2630:2723   */\n      tag_78\n        /* \"#utility.yul\":2719:2722   */\n      dup3\n        /* \"#utility.yul\":2630:2723   */\n      tag_43\n      jump\t// in\n    tag_78:\n        /* \"#utility.yul\":2748:2750   */\n      0x20\n        /* \"#utility.yul\":2743:2746   */\n      dup3\n        /* \"#utility.yul\":2739:2751   */\n      add\n        /* \"#utility.yul\":2732:2751   */\n      swap1\n      pop\n        /* \"#utility.yul\":2391:2757   */\n      swap2\n      swap1\n      pop\n      jump\t// out\n        /* \"#utility.yul\":2763:3182   */\n    tag_25:\n        /* \"#utility.yul\":2929:2933   */\n      0x00\n        /* \"#utility.yul\":2967:2969   */\n      0x20\n        /* \"#utility.yul\":2956:2965   */\n      dup3\n        /* \"#utility.yul\":2952:2970   */\n      add\n        /* \"#utility.yul\":2944:2970   */\n      swap1\n      pop\n        /* \"#utility.yul\":3016:3025   */\n      dup2\n        /* \"#utility.yul\":3010:3014   */\n      dup2\n        /* \"#utility.yul\":3006:3026   */\n      sub\n        /* \"#utility.yul\":3002:3003   */\n      0x00\n        /* \"#utility.yul\":2991:3000   */\n      dup4\n        /* \"#utility.yul\":2987:3004   */\n      add\n        /* \"#utility.yul\":2980:3027   */\n      mstore\n        /* \"#utility.yul\":3044:3175   */\n      tag_80\n        /* \"#utility.yul\":3170:3174   */\n      dup2\n        /* \"#utility.yul\":3044:3175   */\n      tag_44\n      jump\t// in\n    tag_80:\n        /* \"#utility.yul\":3036:3175   */\n      swap1\n      pop\n        /* \"#utility.yul\":2763:3182   */\n      swap2\n      swap1\n      pop\n      jump\t// out\n        /* \"#utility.yul\":3188:3359   */\n    tag_45:\n        /* \"#utility.yul\":3328:3351   */\n      0x4d6178696d756d206c696d697420726561636865640000000000000000000000\n        /* \"#utility.yul\":3324:3325   */\n      0x00\n        /* \"#utility.yul\":3316:3322   */\n      dup3\n        /* \"#utility.yul\":3312:3326   */\n      add\n        /* \"#utility.yul\":3305:3352   */\n      mstore\n        /* \"#utility.yul\":3188:3359   */\n      pop\n      jump\t// out\n        /* \"#utility.yul\":3365:3731   */\n    tag_46:\n        /* \"#utility.yul\":3507:3510   */\n      0x00\n        /* \"#utility.yul\":3528:3595   */\n      tag_83\n        /* \"#utility.yul\":3592:3594   */\n      0x15\n        /* \"#utility.yul\":3587:3590   */\n      dup4\n        /* \"#utility.yul\":3528:3595   */\n      tag_42\n      jump\t// in\n    tag_83:\n        /* \"#utility.yul\":3521:3595   */\n      swap2\n      pop\n        /* \"#utility.yul\":3604:3697   */\n      tag_84\n        /* \"#utility.yul\":3693:3696   */\n      dup3\n        /* \"#utility.yul\":3604:3697   */\n      tag_45\n      jump\t// in\n    tag_84:\n        /* \"#utility.yul\":3722:3724   */\n      0x20\n        /* \"#utility.yul\":3717:3720   */\n      dup3\n        /* \"#utility.yul\":3713:3725   */\n      add\n        /* \"#utility.yul\":3706:3725   */\n      swap1\n      pop\n        /* \"#utility.yul\":3365:3731   */\n      swap2\n      swap1\n      pop\n      jump\t// out\n        /* \"#utility.yul\":3737:4156   */\n    tag_28:\n        /* \"#utility.yul\":3903:3907   */\n      0x00\n        /* \"#utility.yul\":3941:3943   */\n      0x20\n        /* \"#utility.yul\":3930:3939   */\n      dup3\n        /* \"#utility.yul\":3926:3944   */\n      add\n        /* \"#utility.yul\":3918:3944   */\n      swap1\n      pop\n        /* \"#utility.yul\":3990:3999   */\n      dup2\n        /* \"#utility.yul\":3984:3988   */\n      dup2\n        /* \"#utility.yul\":3980:4000   */\n      sub\n        /* \"#utility.yul\":3976:3977   */\n      0x00\n        /* \"#utility.yul\":3965:3974   */\n      dup4\n        /* \"#utility.yul\":3961:3978   */\n      add\n        /* \"#utility.yul\":3954:4001   */\n      mstore\n        /* \"#utility.yul\":4018:4149   */\n      tag_86\n        /* \"#utility.yul\":4144:4148   */\n      dup2\n        /* \"#utility.yul\":4018:4149   */\n      tag_46\n      jump\t// in\n    tag_86:\n        /* \"#utility.yul\":4010:4149   */\n      swap1\n      pop\n        /* \"#utility.yul\":3737:4156   */\n      swap2\n      swap1\n      pop\n      jump\t// out\n        /* \"#utility.yul\":4162:4342   */\n    tag_47:\n        /* \"#utility.yul\":4210:4287   */\n      0x4e487b7100000000000000000000000000000000000000000000000000000000\n        /* \"#utility.yul\":4207:4208   */\n      0x00\n        /* \"#utility.yul\":4200:4288   */\n      mstore\n        /* \"#utility.yul\":4307:4311   */\n      0x11\n        /* \"#utility.yul\":4304:4305   */\n      0x04\n        /* \"#utility.yul\":4297:4312   */\n      mstore\n        /* \"#utility.yul\":4331:4335   */\n      0x24\n        /* \"#utility.yul\":4328:4329   */\n      0x00\n        /* \"#utility.yul\":4321:4336   */\n      revert\n        /* \"#utility.yul\":4348:4536   */\n    tag_30:\n        /* \"#utility.yul\":4386:4389   */\n      0x00\n        /* \"#utility.yul\":4405:4423   */\n      tag_89\n        /* \"#utility.yul\":4421:4422   */\n      dup3\n        /* \"#utility.yul\":4405:4423   */\n      tag_31\n      jump\t// in\n    tag_89:\n        /* \"#utility.yul\":4400:4423   */\n      swap2\n      pop\n        /* \"#utility.yul\":4437:4455   */\n      tag_90\n        /* \"#utility.yul\":4453:4454   */\n      dup4\n        /* \"#utility.yul\":4437:4455   */\n      tag_31\n      jump\t// in\n    tag_90:\n        /* \"#utility.yul\":4432:4455   */\n      swap3\n      pop\n        /* \"#utility.yul\":4478:4479   */\n      dup3\n        /* \"#utility.yul\":4475:4476   */\n      dup3\n        /* \"#utility.yul\":4471:4480   */\n      add\n        /* \"#utility.yul\":4464:4480   */\n      swap1\n      pop\n        /* \"#utility.yul\":4501:4505   */\n      0xff\n        /* \"#utility.yul\":4496:4499   */\n      dup2\n        /* \"#utility.yul\":4493:4506   */\n      gt\n        /* \"#utility.yul\":4490:4529   */\n      iszero\n      tag_91\n      jumpi\n        /* \"#utility.yul\":4509:4527   */\n      tag_92\n      tag_47\n      jump\t// in\n    tag_92:\n        /* \"#utility.yul\":4490:4529   */\n    tag_91:\n        /* \"#utility.yul\":4348:4536   */\n      swap3\n      swap2\n      pop\n      pop\n      jump\t// out\n\n    auxdata: 0xa2646970667358221220a08e16db9228f93df7206f99c75cf3d72a223cec89386d8bd47992f15b0037f464736f6c634300081a0033\n}\n",
				"bytecode": {
					"linkReferences": {},
					"object": "6080604052348015600e575f80fd5b506040516105963803806105968339818101604052810190602e91906081565b805f806101000a81548160ff021916908360ff1602179055505060a7565b5f80fd5b5f60ff82169050919050565b6063816050565b8114606c575f80fd5b50565b5f81519050607b81605c565b92915050565b5f602082840312156093576092604c565b5b5f609e84828501606f565b91505092915050565b6104e2806100b45f395ff3fe608060405234801561000f575f80fd5b506004361061004a575f3560e01c806303108fe41461004e57806313f277441461006c5780635c36b45014610076578063d8e773a214610094575b5f80fd5b6100566100c4565b6040516100639190610296565b60405180910390f35b6100746100d4565b005b61007e61024c565b60405161008b9190610296565b60405180910390f35b6100ae60048036038101906100a9919061030d565b61025e565b6040516100bb9190610352565b60405180910390f35b5f8054906101000a900460ff1681565b60015f3373ffffffffffffffffffffffffffffffffffffffff1673ffffffffffffffffffffffffffffffffffffffff1681526020019081526020015f205f9054906101000a900460ff161561015e576040517f08c379a0000000000000000000000000000000000000000000000000000000008152600401610155906103c5565b60405180910390fd5b5f8054906101000a900460ff1660ff1660025f9054906101000a900460ff1660ff16106101c0576040517f08c379a00000000000000000000000000000000000000000000000000000000081526004016101b79061042d565b60405180910390fd5b6001805f3373ffffffffffffffffffffffffffffffffffffffff1673ffffffffffffffffffffffffffffffffffffffff1681526020019081526020015f205f6101000a81548160ff021916908315150217905550600160025f8282829054906101000a900460ff166102329190610478565b92506101000a81548160ff021916908360ff160217905550565b60025f9054906101000a900460ff1681565b6001602052805f5260405f205f915054906101000a900460ff1681565b5f60ff82169050919050565b6102908161027b565b82525050565b5f6020820190506102a95f830184610287565b92915050565b5f80fd5b5f73ffffffffffffffffffffffffffffffffffffffff82169050919050565b5f6102dc826102b3565b9050919050565b6102ec816102d2565b81146102f6575f80fd5b50565b5f81359050610307816102e3565b92915050565b5f60208284031215610322576103216102af565b5b5f61032f848285016102f9565b91505092915050565b5f8115159050919050565b61034c81610338565b82525050565b5f6020820190506103655f830184610343565b92915050565b5f82825260208201905092915050565b7f4164647265737320416c72656164792057686974654c697374656400000000005f82015250565b5f6103af601b8361036b565b91506103ba8261037b565b602082019050919050565b5f6020820190508181035f8301526103dc816103a3565b9050919050565b7f4d6178696d756d206c696d6974207265616368656400000000000000000000005f82015250565b5f61041760158361036b565b9150610422826103e3565b602082019050919050565b5f6020820190508181035f8301526104448161040b565b9050919050565b7f4e487b71000000000000000000000000000000000000000000000000000000005f52601160045260245ffd5b5f6104828261027b565b915061048d8361027b565b9250828201905060ff8111156104a6576104a561044b565b5b9291505056fea2646970667358221220a08e16db9228f93df7206f99c75cf3d72a223cec89386d8bd47992f15b0037f464736f6c634300081a0033",
					"opcodes": "PUSH1 0x80 PUSH1 0x40 MSTORE CALLVALUE DUP1 ISZERO PUSH1 0xE JUMPI PUSH0 DUP1 REVERT JUMPDEST POP PUSH1 0x40 MLOAD PUSH2 0x596 CODESIZE SUB DUP1 PUSH2 0x596 DUP4 CODECOPY DUP2 DUP2 ADD PUSH1 0x40 MSTORE DUP2 ADD SWAP1 PUSH1 0x2E SWAP2 SWAP1 PUSH1 0x81 JUMP JUMPDEST DUP1 PUSH0 DUP1 PUSH2 0x100 EXP DUP2 SLOAD DUP2 PUSH1 0xFF MUL NOT AND SWAP1 DUP4 PUSH1 0xFF AND MUL OR SWAP1 SSTORE POP POP PUSH1 0xA7 JUMP JUMPDEST PUSH0 DUP1 REVERT JUMPDEST PUSH0 PUSH1 0xFF DUP3 AND SWAP1 POP SWAP2 SWAP1 POP JUMP JUMPDEST PUSH1 0x63 DUP2 PUSH1 0x50 JUMP JUMPDEST DUP2 EQ PUSH1 0x6C JUMPI PUSH0 DUP1 REVERT JUMPDEST POP JUMP JUMPDEST PUSH0 DUP2 MLOAD SWAP1 POP PUSH1 0x7B DUP2 PUSH1 0x5C JUMP JUMPDEST SWAP3 SWAP2 POP POP JUMP JUMPDEST PUSH0 PUSH1 0x20 DUP3 DUP5 SUB SLT ISZERO PUSH1 0x93 JUMPI PUSH1 0x92 PUSH1 0x4C JUMP JUMPDEST JUMPDEST PUSH0 PUSH1 0x9E DUP5 DUP3 DUP6 ADD PUSH1 0x6F JUMP JUMPDEST SWAP2 POP POP SWAP3 SWAP2 POP POP JUMP JUMPDEST PUSH2 0x4E2 DUP1 PUSH2 0xB4 PUSH0 CODECOPY PUSH0 RETURN INVALID PUSH1 0x80 PUSH1 0x40 MSTORE CALLVALUE DUP1 ISZERO PUSH2 0xF JUMPI PUSH0 DUP1 REVERT JUMPDEST POP PUSH1 0x4 CALLDATASIZE LT PUSH2 0x4A JUMPI PUSH0 CALLDATALOAD PUSH1 0xE0 SHR DUP1 PUSH4 0x3108FE4 EQ PUSH2 0x4E JUMPI DUP1 PUSH4 0x13F27744 EQ PUSH2 0x6C JUMPI DUP1 PUSH4 0x5C36B450 EQ PUSH2 0x76 JUMPI DUP1 PUSH4 0xD8E773A2 EQ PUSH2 0x94 JUMPI JUMPDEST PUSH0 DUP1 REVERT JUMPDEST PUSH2 0x56 PUSH2 0xC4 JUMP JUMPDEST PUSH1 0x40 MLOAD PUSH2 0x63 SWAP2 SWAP1 PUSH2 0x296 JUMP JUMPDEST PUSH1 0x40 MLOAD DUP1 SWAP2 SUB SWAP1 RETURN JUMPDEST PUSH2 0x74 PUSH2 0xD4 JUMP JUMPDEST STOP JUMPDEST PUSH2 0x7E PUSH2 0x24C JUMP JUMPDEST PUSH1 0x40 MLOAD PUSH2 0x8B SWAP2 SWAP1 PUSH2 0x296 JUMP JUMPDEST PUSH1 0x40 MLOAD DUP1 SWAP2 SUB SWAP1 RETURN JUMPDEST PUSH2 0xAE PUSH1 0x4 DUP1 CALLDATASIZE SUB DUP2 ADD SWAP1 PUSH2 0xA9 SWAP2 SWAP1 PUSH2 0x30D JUMP JUMPDEST PUSH2 0x25E JUMP JUMPDEST PUSH1 0x40 MLOAD PUSH2 0xBB SWAP2 SWAP1 PUSH2 0x352 JUMP JUMPDEST PUSH1 0x40 MLOAD DUP1 SWAP2 SUB SWAP1 RETURN JUMPDEST PUSH0 DUP1 SLOAD SWAP1 PUSH2 0x100 EXP SWAP1 DIV PUSH1 0xFF AND DUP2 JUMP JUMPDEST PUSH1 0x1 PUSH0 CALLER PUSH20 0xFFFFFFFFFFFFFFFFFFFFFFFFFFFFFFFFFFFFFFFF AND PUSH20 0xFFFFFFFFFFFFFFFFFFFFFFFFFFFFFFFFFFFFFFFF AND DUP2 MSTORE PUSH1 0x20 ADD SWAP1 DUP2 MSTORE PUSH1 0x20 ADD PUSH0 KECCAK256 PUSH0 SWAP1 SLOAD SWAP1 PUSH2 0x100 EXP SWAP1 DIV PUSH1 0xFF AND ISZERO PUSH2 0x15E JUMPI PUSH1 0x40 MLOAD PUSH32 0x8C379A000000000000000000000000000000000000000000000000000000000 DUP2 MSTORE PUSH1 0x4 ADD PUSH2 0x155 SWAP1 PUSH2 0x3C5 JUMP JUMPDEST PUSH1 0x40 MLOAD DUP1 SWAP2 SUB SWAP1 REVERT JUMPDEST PUSH0 DUP1 SLOAD SWAP1 PUSH2 0x100 EXP SWAP1 DIV PUSH1 0xFF AND PUSH1 0xFF AND PUSH1 0x2 PUSH0 SWAP1 SLOAD SWAP1 PUSH2 0x100 EXP SWAP1 DIV PUSH1 0xFF AND PUSH1 0xFF AND LT PUSH2 0x1C0 JUMPI PUSH1 0x40 MLOAD PUSH32 0x8C379A000000000000000000000000000000000000000000000000000000000 DUP2 MSTORE PUSH1 0x4 ADD PUSH2 0x1B7 SWAP1 PUSH2 0x42D JUMP JUMPDEST PUSH1 0x40 MLOAD DUP1 SWAP2 SUB SWAP1 REVERT JUMPDEST PUSH1 0x1 DUP1 PUSH0 CALLER PUSH20 0xFFFFFFFFFFFFFFFFFFFFFFFFFFFFFFFFFFFFFFFF AND PUSH20 0xFFFFFFFFFFFFFFFFFFFFFFFFFFFFFFFFFFFFFFFF AND DUP2 MSTORE PUSH1 0x20 ADD SWAP1 DUP2 MSTORE PUSH1 0x20 ADD PUSH0 KECCAK256 PUSH0 PUSH2 0x100 EXP DUP2 SLOAD DUP2 PUSH1 0xFF MUL NOT AND SWAP1 DUP4 ISZERO ISZERO MUL OR SWAP1 SSTORE POP PUSH1 0x1 PUSH1 0x2 PUSH0 DUP3 DUP3 DUP3 SWAP1 SLOAD SWAP1 PUSH2 0x100 EXP SWAP1 DIV PUSH1 0xFF AND PUSH2 0x232 SWAP2 SWAP1 PUSH2 0x478 JUMP JUMPDEST SWAP3 POP PUSH2 0x100 EXP DUP2 SLOAD DUP2 PUSH1 0xFF MUL NOT AND SWAP1 DUP4 PUSH1 0xFF AND MUL OR SWAP1 SSTORE POP JUMP JUMPDEST PUSH1 0x2 PUSH0 SWAP1 SLOAD SWAP1 PUSH2 0x100 EXP SWAP1 DIV PUSH1 0xFF AND DUP2 JUMP JUMPDEST PUSH1 0x1 PUSH1 0x20 MSTORE DUP1 PUSH0 MSTORE PUSH1 0x40 PUSH0 KECCAK256 PUSH0 SWAP2 POP SLOAD SWAP1 PUSH2 0x100 EXP SWAP1 DIV PUSH1 0xFF AND DUP2 JUMP JUMPDEST PUSH0 PUSH1 0xFF DUP3 AND SWAP1 POP SWAP2 SWAP1 POP JUMP JUMPDEST PUSH2 0x290 DUP2 PUSH2 0x27B JUMP JUMPDEST DUP3 MSTORE POP POP JUMP JUMPDEST PUSH0 PUSH1 0x20 DUP3 ADD SWAP1 POP PUSH2 0x2A9 PUSH0 DUP4 ADD DUP5 PUSH2 0x287 JUMP JUMPDEST SWAP3 SWAP2 POP POP JUMP JUMPDEST PUSH0 DUP1 REVERT JUMPDEST PUSH0 PUSH20 0xFFFFFFFFFFFFFFFFFFFFFFFFFFFFFFFFFFFFFFFF DUP3 AND SWAP1 POP SWAP2 SWAP1 POP JUMP JUMPDEST PUSH0 PUSH2 0x2DC DUP3 PUSH2 0x2B3 JUMP JUMPDEST SWAP1 POP SWAP2 SWAP1 POP JUMP JUMPDEST PUSH2 0x2EC DUP2 PUSH2 0x2D2 JUMP JUMPDEST DUP2 EQ PUSH2 0x2F6 JUMPI PUSH0 DUP1 REVERT JUMPDEST POP JUMP JUMPDEST PUSH0 DUP2 CALLDATALOAD SWAP1 POP PUSH2 0x307 DUP2 PUSH2 0x2E3 JUMP JUMPDEST SWAP3 SWAP2 POP POP JUMP JUMPDEST PUSH0 PUSH1 0x20 DUP3 DUP5 SUB SLT ISZERO PUSH2 0x322 JUMPI PUSH2 0x321 PUSH2 0x2AF JUMP JUMPDEST JUMPDEST PUSH0 PUSH2 0x32F DUP5 DUP3 DUP6 ADD PUSH2 0x2F9 JUMP JUMPDEST SWAP2 POP POP SWAP3 SWAP2 POP POP JUMP JUMPDEST PUSH0 DUP2 ISZERO ISZERO SWAP1 POP SWAP2 SWAP1 POP JUMP JUMPDEST PUSH2 0x34C DUP2 PUSH2 0x338 JUMP JUMPDEST DUP3 MSTORE POP POP JUMP JUMPDEST PUSH0 PUSH1 0x20 DUP3 ADD SWAP1 POP PUSH2 0x365 PUSH0 DUP4 ADD DUP5 PUSH2 0x343 JUMP JUMPDEST SWAP3 SWAP2 POP POP JUMP JUMPDEST PUSH0 DUP3 DUP3 MSTORE PUSH1 0x20 DUP3 ADD SWAP1 POP SWAP3 SWAP2 POP POP JUMP JUMPDEST PUSH32 0x4164647265737320416C72656164792057686974654C69737465640000000000 PUSH0 DUP3 ADD MSTORE POP JUMP JUMPDEST PUSH0 PUSH2 0x3AF PUSH1 0x1B DUP4 PUSH2 0x36B JUMP JUMPDEST SWAP2 POP PUSH2 0x3BA DUP3 PUSH2 0x37B JUMP JUMPDEST PUSH1 0x20 DUP3 ADD SWAP1 POP SWAP2 SWAP1 POP JUMP JUMPDEST PUSH0 PUSH1 0x20 DUP3 ADD SWAP1 POP DUP2 DUP2 SUB PUSH0 DUP4 ADD MSTORE PUSH2 0x3DC DUP2 PUSH2 0x3A3 JUMP JUMPDEST SWAP1 POP SWAP2 SWAP1 POP JUMP JUMPDEST PUSH32 0x4D6178696D756D206C696D697420726561636865640000000000000000000000 PUSH0 DUP3 ADD MSTORE POP JUMP JUMPDEST PUSH0 PUSH2 0x417 PUSH1 0x15 DUP4 PUSH2 0x36B JUMP JUMPDEST SWAP2 POP PUSH2 0x422 DUP3 PUSH2 0x3E3 JUMP JUMPDEST PUSH1 0x20 DUP3 ADD SWAP1 POP SWAP2 SWAP1 POP JUMP JUMPDEST PUSH0 PUSH1 0x20 DUP3 ADD SWAP1 POP DUP2 DUP2 SUB PUSH0 DUP4 ADD MSTORE PUSH2 0x444 DUP2 PUSH2 0x40B JUMP JUMPDEST SWAP1 POP SWAP2 SWAP1 POP JUMP JUMPDEST PUSH32 0x4E487B7100000000000000000000000000000000000000000000000000000000 PUSH0 MSTORE PUSH1 0x11 PUSH1 0x4 MSTORE PUSH1 0x24 PUSH0 REVERT JUMPDEST PUSH0 PUSH2 0x482 DUP3 PUSH2 0x27B JUMP JUMPDEST SWAP2 POP PUSH2 0x48D DUP4 PUSH2 0x27B JUMP JUMPDEST SWAP3 POP DUP3 DUP3 ADD SWAP1 POP PUSH1 0xFF DUP2 GT ISZERO PUSH2 0x4A6 JUMPI PUSH2 0x4A5 PUSH2 0x44B JUMP JUMPDEST JUMPDEST SWAP3 SWAP2 POP POP JUMP INVALID LOG2 PUSH5 0x6970667358 0x22 SLT KECCAK256 LOG0 DUP15 AND 0xDB SWAP3 0x28 0xF9 RETURNDATASIZE 0xF7 KECCAK256 PUSH16 0x99C75CF3D72A223CEC89386D8BD47992 CALL JUMPDEST STOP CALLDATACOPY DELEGATECALL PUSH5 0x736F6C6343 STOP ADDMOD BYTE STOP CALLER "
				},
				"gasEstimates": {
					"creation": {
						"codeDepositCost": "250000",
						"executionCost": "infinite",
						"totalCost": "infinite"
					},
					"external": {
						"addAddressToWhiteList()": "infinite",
						"maxWhiteListedAddresses()": "2441",
						"numOfWhiteListedAddresses()": "2488",
						"whiteListedAddresses(address)": "2877"
					}
				},
				"methodIdentifiers": {
					"addAddressToWhiteList()": "13f27744",
					"maxWhiteListedAddresses()": "03108fe4",
					"numOfWhiteListedAddresses()": "5c36b450",
					"whiteListedAddresses(address)": "d8e773a2"
				}
			},
			"storageLayout": {
				"storage": [
					{
						"astId": 3,
						"contract": "contracts/whiteList.sol:WhiteList",
						"label": "maxWhiteListedAddresses",
						"offset": 0,
						"slot": "0",
						"type": "t_uint8"
					},
					{
						"astId": 7,
						"contract": "contracts/whiteList.sol:WhiteList",
						"label": "whiteListedAddresses",
						"offset": 0,
						"slot": "1",
						"type": "t_mapping(t_address,t_bool)"
					},
					{
						"astId": 9,
						"contract": "contracts/whiteList.sol:WhiteList",
						"label": "numOfWhiteListedAddresses",
						"offset": 0,
						"slot": "2",
						"type": "t_uint8"
					}
				],
				"types": {
					"t_address": {
						"encoding": "inplace",
						"label": "address",
						"numberOfBytes": "20"
					},
					"t_bool": {
						"encoding": "inplace",
						"label": "bool",
						"numberOfBytes": "1"
					},
					"t_mapping(t_address,t_bool)": {
						"encoding": "mapping",
						"key": "t_address",
						"label": "mapping(address => bool)",
						"numberOfBytes": "32",
						"value": "t_bool"
					},
					"t_uint8": {
						"encoding": "inplace",
						"label": "uint8",
						"numberOfBytes": "1"
					}
				}
			},
			"userdoc": {
				"kind": "user",
				"methods": {},
				"version": 1
			}
		}
	}
}